:100000000C9434000C9451000C9451000C947E001C
:100010000C9451000C9492000C9451000C945100DB
:100020000C9451000C9451000C9451000C9451000C
:100030000C9451000C9451000C94CB000C94510082
:100040000C9451000C9451000C94F2020C94510049
:100050000C9451000C9451000C9451000C94B40079
:100060000C9451000C94510011241FBECFEFD8E026
:10007000DEBFCDBF11E0A0E0B1E0EEE4F7E102C0E9
:1000800005900D92AC3DB107D9F722E0ACEDB1E09F
:1000900001C01D92A031B207E1F70E9429040C941F
:1000A000A50B0C940000EFEFF3E23197F1F700C0DD
:1000B000000021E030E002C0220F331F8A95E2F7F2
:1000C00083B190E082239323892B09F008958FEF69
:1000D00093E20197F1F700C00000F2CFF999FECF4B
:1000E0001FBA92BD81BD60BDFA9AF99A0895F99937
:1000F000FECF92BD81BDF89A80B508951F920F92F0
:100100000FB60F9211248F93189B09C081E0809342
:10011000DC018F910F900FBE0F901F9018951092D9
:10012000DC01F7CF1F920F920FB60F9211248F931D
:100130004C9B03C081E08093DD018F910F900FBE37
:100140000F901F90189584B5826084BD85B584603A
:1001500085BDEEE6F0E08081826080838FEF87BD11
:1001600080B7886080BF08951F920F920FB60F92DC
:1001700011248F939F938091DF019091E00101966C
:100180009093E0018093DF019F918F910F900FBEBC
:100190000F901F9018951F920F920FB60F92112477
:1001A0002F935F936F937F938F939F93AF93BF939F
:1001B0008091DE016CE00E949908911119C080B70E
:1001C000886080BF1092E0011092DF018091DE0113
:1001D0008F5F8093DE01BF91AF919F918F917F914F
:1001E0006F915F912F910F900FBE0F901F901895F8
:1001F0008091DE018150990B6CE070E00E94B9089B
:10020000892B01F780B7877F80BF8091DF019091B4
:10021000E0018D32914018F01092E101D3CF81E0DE
:100220008093E101CFCF0F931F93A82F4115510564
:1002300009F468C084EA8093BC008091BC0087FF09
:10024000FCCF8091B900887F883031F58A2F8E7F6E
:100250008093BB0084E88093BC008091BC0087FF42
:10026000FCCF8091B900887F8831C9F08032A1F439
:1002700094E99093BC0010C081918093BB0060937F
:10028000BC008091BC0087FFFCCF8091B900887FC3
:10029000883249F0803361F31F910F910895FB017B
:1002A000460F571F64E84E175F0731F740E101150D
:1002B000110569F514C0F90194EC0130110589F4B8
:1002C00084E88093BC008091BC0087FFFCCF8091C4
:1002D000B900887F883501F78091BB00808380E07A
:1002E000C7CF9093BC008091BC0087FFFCCF80916A
:1002F000B900887F01501109803571F68091BB00EB
:100300008193DBCF80E00115110531F248E084EAEA
:100310008093BC008091BC0087FFFCCF8091B90026
:10032000887F4813B9CFA160A093BB0084E8809375
:10033000BC008091BC0087FFFCCF8091B900887F12
:10034000803409F4B8CF883409F0A6CF91CF109249
:10035000B9008093B8000895FF920F931F93CF9335
:10036000DF93CDB7DEB728970FB6F894DEBF0FBE88
:10037000CDBF2FEF8FE191E0215080409040E1F719
:1003800000C0000080E8F82EFF8288E3888710E034
:1003900000E030E020E042E050E0BE01695F7F4FC6
:1003A00088E70E94130183E397E00197F1F7FD824C
:1003B00088E08E8330E020E042E050E0BE016B5FD9
:1003C0007F4F88E70E94130183E397E00197F1F7DD
:1003D000FB8281E08C8330E020E042E050E0BE010F
:1003E0006D5F7F4F88E70E9413018FEF9BE60197B7
:1003F000F1F700C00000F98286E08A8330E020E057
:1004000042E050E0BE016F5F7F4F88E70E9413011A
:1004100028960FB6F894DEBF0FBECDBFDF91CF9107
:100420001F910F91FF9008950F931F93CF93DF9328
:1004300000D0CDB7DEB780E8898381E08A8310E001
:1004400000E030E020E042E050E0BE016F5F7F4F0F
:1004500088E70E9413010F900F90DF91CF911F91B9
:100460000F9108950F931F93CF93DF93CDB7DEB70E
:1004700064970FB6F894DEBF0FBECDBF20E429838A
:10048000FC01DE01129641E050E09191992319F0B0
:1004900044315105A9F410E000E030E020E0BE0155
:1004A0006F5F7F4F88E70E94130164960FB6F89440
:1004B000DEBF0FBECDBFDF91CF911F910F91089589
:1004C0004F5F5F4F9D93E1CF0F931F93CF93DF93C8
:1004D00000D0CDB7DEB790E8998380688A8310E0BA
:1004E00000E030E020E042E050E0BE016F5F7F4F6F
:1004F00088E70E9413010F900F90DF91CF911F9119
:100500000F9108950F931F93CF93DF9300D0CDB732
:10051000DEB780E889838FE08A8310E000E030E076
:1005200020E042E050E0BE016F5F7F4F88E70E940D
:1005300013010F900F90DF91CF911F910F910895AC
:10054000529A5A9826E686EE90E0215080409040DC
:10055000E1F752980895539A5B9829E989E591E06B
:10056000215080409040E1F7000053980895CF93C8
:10057000C82F809100018C1318C0CF910C94A00259
:100580000E94AB0229E989E591E02150804090402A
:10059000E1F70000809100018150809300018111FA
:1005A00004C08091010180930001809100018C13AF
:1005B000E7CFCF9108951092C5008BE08093C400DF
:1005C000E1ECF0E088E1808386E08093C2008081E6
:1005D0008068808308959091C00095FFFCCF809340
:1005E000C60008951F920F920FB60F9211242F93F9
:1005F0003F938F939F93EF93FF938091C6009091C9
:10060000F901911114C0813091F48093F801809127
:10061000F9018F5F8093F901FF91EF919F918F9185
:100620003F912F910F900FBE0F901F9018959091B2
:10063000F901911106C0823021F481E08093F60126
:10064000E6CF9091F901911106C0833021F481E049
:100650008093F401DCCF9091F901911106C08430B0
:1006600021F481E08093F201D2CF9091F9019111B0
:1006700006C0853021F481E08093E901C8CF9091D4
:10068000F901911106C0863021F481E08093EC01DC
:10069000BECF9091F901911106C0873021F481E01D
:1006A0008093E801B9CF9091F901911106C088308B
:1006B00021F481E08093E701AFCF9091F801992375
:1006C00009F181110AC01092FB0181E08093F701CA
:1006D0001092F9011092F8019FCFE091F901E150D9
:1006E000FF0BE550FE4F8F3F59F4108281E080935D
:1006F000F7011092F8011092F9018093E5018CCF77
:10070000808385CF9091F601992399F0811108C0DB
:1007100082E08093F5011092F6011092F9017CCFEE
:100720008130C9F78093F5018093F8018093E60149
:10073000F2CF9091F401992389F0811106C082E0F3
:100740008093F3011092F401E8CF8130D9F78093C0
:10075000F3018093F4018093E401F4CF9091F201CE
:10076000992311F19091F901913041F490E0982F83
:1007700088279093F0018093EF0149CF9091F90180
:10078000923009F049CF2091EF013091F001282BF0
:100790003093F0012093EF011092F9011092F201D1
:1007A00081E08093F10138CF9091E901992341F0E4
:1007B0008093EE0181E08093EB011092E901ADCFCF
:1007C0009091EC01992309F427CF882331F082E03E
:1007D0008093ED011092EC01A0CF81E0F9CFECE71E
:1007E000F0E0808180648083808180628083EAE79A
:1007F000F0E08081876080838081806880830895B5
:1008000090917C00907F90937C0090917C008F7001
:10081000982B90937C0080917A00806480937A007A
:1008200080917A0086FDFCCF809179000895E0E800
:10083000F0E0808182688083E1E8F0E080818A6175
:1008400080838FE39CE99093870080938600219AB0
:100850000895CF93DF93CDB7DEB7A5970FB6F89481
:10086000DEBF0FBECDBF88EE93E00E9477008AEE18
:1008700093E00E947700082F10E089EE93E00E9439
:100880007700182BC80168EE73E00E94A5086D8BF5
:10089000C80164E670E00E94A508CB01EAE0F0E040
:1008A000BF010E94A5088E8BC801BF010E94A50848
:1008B000282FCB01BF010E94A5088F8B288F8BEEBC
:1008C00093E00E9477008D8F8F3F11F423E02D8FEE
:1008D0000E94A3000E9417040E94AC010E94EF0333
:1008E0000E94DB02789427982298549820982F9A97
:1008F0002A9A289A389A209A559A8091B100816054
:100900008093B10080916D00806180936D00809133
:10091000680084608093680080916B0081608093A0
:100920006B00809168008160809368008AE20E9479
:10093000A7013FEF4FE352E0315040405040E1F714
:1009400000C000000E94140283E397E00197F1F7D2
:1009500080E00E94640282E091E00E9432020E94E4
:10096000820284E10E94640282E191E00E943202EC
:1009700083E397E00197F1F741E7242E47E1342E16
:1009800091E09B8F812C912CA12C412C1E8E00E09C
:10099000D12CC12C512C1F8E10E09E01275E3F4FA1
:1009A0003A8F298F5AE0652E712C8091E1018823BE
:1009B00009F492C2511090C23B8D332309F48CC2CA
:1009C00084E00E94EB02409A82E00E94B7024FEF5F
:1009D0005FE787EF415050408040E1F700C00000E2
:1009E0005B8C1F9909C083E00E94EB0285E00E94A6
:1009F000B70287E00E9453001A990DC081E00E945F
:100A0000EB0282E00E94EB0282E00E94530091E040
:100A10009E8FD12CC12C81E00E9400048C8F82E03B
:100A20000E940004F82E83E00E940004E82EBC8C93
:100A3000BF28B82A09F45BC02F8DBF8C211157C085
:100A40008FE0810F0E9464023C8D332351F03038D7
:100A500009F468C208F048C2832F8355823008F435
:100A600053C2FF2061F040E8F41609F489C24F1523
:100A700008F463C28DEA8F0D823008F473C2EE2051
:100A800061F080E8E81609F4AFC28E1508F48EC252
:100A90008DEA8E0D823008F499C2143009F0B7C285
:100AA000FE017596DE01519691918D919813A7C222
:100AB000298D3A8D2E173F07B9F711E08EE10E947C
:100AC0006402112309F49DC280E391E00E94320286
:100AD00008608FE00E94640281E691E00E94320289
:100AE00010E031E03E8FD12CC12CBB24B394809117
:100AF000F701882361F08091FB0181118BC284E5AD
:100B00000E94640286E491E00E943202A3948091E4
:100B1000F501882381F08091F501813009F091C2BF
:100B200083E60E9464028DE691E00E943202026038
:100B3000912C1092F5018091F301882381F080912E
:100B4000F301813009F08BC281E50E94640289E7DC
:100B500091E00E9432020160812C1092F301809199
:100B6000F101882309F454C08091EF019091F001C4
:100B700068EE73E00E94A5086D8B8091EF01909163
:100B8000F00164E670E00E94A508CB01B3010E9469
:100B9000A5088E8B8091EF019091F001B3010E9426
:100BA000A508CB01B3010E94A5088F8B8091EF01AE
:100BB0009091F001B3010E94A508888F6091EF0128
:100BC0007091F0018AEE93E00E946E008091EF0137
:100BD0009091F001692F89EE93E00E946E001092CF
:100BE000F10184E40E94640281E891E00E943202F3
:100BF0005FEF8FE793E4515080409040E1F700C0F1
:100C0000000086E40E94640289E591E00E943202BD
:100C10008091EB01882309F12091EE012D8F622F45
:100C20008BEE93E00E946E001092EB0184E40E9430
:100C300064028EE891E00E9432023FEF4FE753E4F6
:100C4000315040405040E1F700C0000086E40E946F
:100C5000640288E591E00E9432028091ED018823D0
:100C600021F18091ED01823009F007C284E10E94F8
:100C700064028CE991E00E94320284E00E94B70293
:100C800080E496E090938900809388001092ED01B3
:100C90009FEF2FE733E4915020403040E1F700C050
:100CA00000001B8E00E0D12CC12C8091E80188232C
:100CB000C9F086E40E94640286EA91E00E94320252
:100CC0002FEF3FE743E4215030404040E1F700C0C0
:100CD000000086E40E94640289E591E00E943202ED
:100CE0001092E8018091E7018823C9F086E40E9410
:100CF000640283EB91E00E9432025FEF8FE793E49E
:100D0000515080409040E1F700C0000086E40E940E
:100D100064028BE591E00E9432021092E70180911B
:100D2000DD01882361F021EA22162FE0320628F047
:100D300081E00E94B7021092DD01312C212C3D8D03
:100D4000E32EF12C81E090E043E0441510F090E0B8
:100D500080E021E030E051E05A1510F030E020E072
:100D6000820F931F21E030E041E0491510F030E0A0
:100D700020E0820F931F21E030E053E0581510F07F
:100D800030E020E0820F931F24E030E02E193F096D
:100D9000281739075CF584E00E94EB0283E00E948B
:100DA000B7028FEF9FE328E3815090402040E1F7A6
:100DB00000C0000083E00E94B7023FEF4FE358E31A
:100DC000315040405040E1F700C0000083E00E94F5
:100DD000B7028FEF9FE328E3815090402040E1F776
:100DE00000C00000812C912CA12C412C2091DC0111
:100DF00081E090E035EFC31631E0D30610F490E0C7
:100E000080E030E082239323892B09F44CC14FEF1B
:100E10005FE786E1415050408040E1F700C00000AC
:100E200028EE33E0309389002093880084E10E940B
:100E3000640282E191E00E94320283E60E94640231
:100E400083E791E00E94320284E50E9464028EEB07
:100E500091E00E9432028EE10E9464028BE391E0F5
:100E60000E94320281E50E9464028DE791E00E94B7
:100E7000320231E03B8F1E8E00E0D12CC12C80E489
:100E80000E9464028091DC01FF92EF921F928F9387
:100E90002CEC31E03F932F9381E090E08C0F9D1F6D
:100EA0009F938F930E94CD08CE0101960E9432023B
:100EB0008FEF93E20197F1F700C000000FB6F894AE
:100EC000DEBF0FBECDBF3E8D332309F428C14FEFE7
:100ED000C41AD40ABF8E69CD8091E101811181CD00
:100EE00040985D98512C7DCD8C8D895A823008F0C8
:100EF000B8CDE1E1F0E0EC0FFD1FE10FF11D87E05F
:100F0000808380E291E00AC0E1E1F0E0EC0FFD1F98
:100F1000E10FF11D81E080838CE191E00E943202BB
:100F20001F5F9FCDE1E1F0E0EC0FFD1FE10FF11D30
:100F300084E080838EE191E0F1CF59EAF51659F112
:100F4000F51608F49CCD8AE18F0D823008F097CD1C
:100F5000E1E1F0E0EC0FFD1FE10FF11D108288E2EE
:100F600091E00AC0E1E1F0E0EC0FFD1FE10FF11D9F
:100F700082E0808382E291E00E9432021F5F7FCD97
:100F8000E1E1F0E0EC0FFD1FE10FF11D85E0808352
:100F900084E291E0F1CFE1E1F0E0EC0FFD1FE10F21
:100FA000F11D88E0808386E291E0E6CF87E58E0D33
:100FB000823008F072CDE1E1F0E0EC0FFD1FE10FAF
:100FC000F11D89E080838EE291E00AC0E1E1F0E06A
:100FD000EC0FFD1FE10FF11D83E080838AE291E0B9
:100FE0000E9432021F5F59CDE1E1F0E0EC0FFD1FDE
:100FF000E10FF11D96E090838CE291E0F1CF10E0DB
:101000005DCD8BE391E00E943202439462CD41E0DA
:101010004E8F69CD84E50E94640286E591E00E94CE
:10102000320284E50E94640286E691E00E94320268
:101030008BEF91E00E9432021092F7010460A12C24
:1010400066CD8091F501823009F073CD83E60E9470
:10105000640283E791E00E94320293946ACD80910A
:10106000F301823009F079CD81E50E9464028DE7B9
:1010700091E00E943202839470CD8091ED01813025
:1010800009F013CE83E00E94B7021092ED014FEFFA
:101090005FE783E4415050408040E1F700C000002A
:1010A00091E09B8F02CE202F30E002FB442740F9D5
:1010B00048A319A2C90133E0959587953A95E1F7C0
:1010C00048A159A1840F951F01FB552750F95AA338
:1010D0001BA22AA13BA1820F931F302F31703CA38A
:1010E0001DA24CA15DA1840F951F8E159F050CF4C8
:1010F000C6CE84E10E9464028CE991E00E94320233
:1011000084E00E94B70280E496E090938900809387
:1011100088001B8E812C912CA12C412CADCE58E542
:1011200025165BE1350608F0D5CE8FEF281A380A70
:10113000D1CE991B79E004C0991F961708F0961B31
:10114000881F7A95C9F780950895AA1BBB1B51E1AA
:1011500007C0AA1FBB1FA617B70710F0A61BB70B27
:10116000881F991F5A95A9F780959095BC01CD01CC
:10117000089597FB072E16F4009407D077FD09D049
:101180000E94A50807FC05D03EF4909581959F4FDD
:101190000895709561957F4F0895AEE0B0E0E3ED5E
:1011A000F8E00C947C0B0D891E8986E08C831A83F1
:1011B00009838FEF9FE79E838D83AE01475E5F4F6C
:1011C0006F89788DCE0101960E94F0082F813885B5
:1011D000020F131FF80110822E96E4E00C94980B76
:1011E000ABE0B0E0E6EFF8E00C946E0B7C013B0165
:1011F0008A01FC0117821682838181FFC8C1CE015A
:1012000001965C01F7019381F30193FD859193FFB2
:1012100081913F01882309F453C1853239F493FD4C
:10122000859193FF81913F01853229F4B70190E0C8
:101230000E94E00AE7CF912C212C312CFFE1F3151D
:1012400038F08B3211F190F4803209F1833229F1B8
:1012500037FC3CC020ED280F2A3050F536FE20C068
:101260008AE0989E200D1124922E06C08D3291F0B6
:10127000803371F7689430F8F30193FD859193FF03
:1012800081913F018111DACF21C0689431F86894CF
:1012900032F8F2CF689433F8EFCF689434F8ECCF9B
:1012A000EAE02E9E200D1124222E689435F8E4CF1A
:1012B0008E3229F436FC04C1689436F8DDCF8C36C2
:1012C00019F4689437F8D8CF8836B1F2982F9F7DFB
:1012D00095549330E0F08336A1F18337C1F1833523
:1012E00009F063C02801F2E04F0E511CF801C080E4
:1012F000D180692D70E036FC02C06FEF7FEFC60130
:101300000E94CA0A4C01689437F882010AC00C5F37
:101310001F4FFFE3F98388248394912C6501E8949F
:1013200037F833FE2DC0522C8114910471F55520ED
:1013300009F468CFB70180E290E00E94E00A5A9475
:10134000F6CFF801808189830E5F1F4FE4CF28011B
:10135000F2E04F0E511CF801C080D180692D70E081
:1013600036FC02C06FEF7FEFC6010E94D50A4C0128
:101370008201D5CFB70180E290E00E94E00A2A9472
:101380002814190409F0B0F7CECFF60137FC859187
:1013900037FE81916F01B70190E00E94E00A511081
:1013A0005A94F1E08F1A9108BFCF843619F089362C
:1013B00009F077C0F80137FE6BC0608171818281CE
:1013C00093810C5F1F4FF32DFF763F2E97FF09C0CF
:1013D00090958095709561957F4F8F4F9F4F689442
:1013E00037F82AE030E0A5010E94100BC82ECA1879
:1013F0008C2C432C36FE0CC0E89440F8C91440F401
:1014000034FE05C032FC03C0F32DFE7E4F2E892C26
:1014100044FE95C0FE01EC0DF11D8081803309F082
:1014200087C0242D297E422E842D8870582E43FC9F
:1014300095C040FE8FC09C2C821418F42C0C922C6A
:10144000981844FE91C0B70180E390E00E94E00A42
:1014500042FE09C088E790E041FE02C088E590E0C6
:10146000B7010E94E00AC91408F48AC0CA94D12CBA
:101470009FEFC91AD90ACA0CDB1CF60182916F01D1
:10148000B70190E00E94E00AAC14BD04B1F74FCF61
:1014900060817181072E000C880B990B0E5F1F4F26
:1014A00092CFD32CE894D4F82AE030E0853739F194
:1014B000232D297FD22E8F3601F148F48835A9F0EB
:1014C000F701868197812B96E2E10C948A0B803795
:1014D00049F08837A9F7D4FE02C06894D2F820E119
:1014E00030E00DC06894D4F8F6CF34FE03C0822FEC
:1014F0008660D82E20E132E002C028E030E0F8011A
:10150000D7FE0FC060817181828193810C5F1F4F74
:10151000A5010E94100BC82ECA183D2CE89437F87C
:1015200067CF6081718190E080E00E5F1F4FF0CF48
:1015300042FC02C0839478CF8394839475CF842D2A
:10154000867809F471CFF6CFB70180E290E00E946F
:10155000E00A83948214C0F3512C73CF522C581894
:10156000821408F46ECFF8CF842D867809F47BCFEF
:101570008BE241FE80E247FC8DE2B70190E071CF43
:10158000B70180E390E00E94E00A9A946CCF8FEF5D
:101590009FEF99CFFC010590615070400110D8F782
:1015A000809590958E0F9F1F0895FC0161507040AB
:1015B00001900110D8F7809590958E0F9F1F089588
:1015C0000F931F93CF93DF93182F092FEB018B817C
:1015D00081FD09C01FEF0FEF812F902FDF91CF9179
:1015E0001F910F91089582FF14C02E813F818C813D
:1015F0009D81281739073CF4E881F981CF010196D4
:101600009983888310838E819F8101969F838E8327
:10161000E3CFE885F985812F0995892BA1F3DACFEE
:10162000FA01AA27283051F1203181F1E8946F9313
:101630006E7F6E5F7F4F8F4F9F4FAF4FB1E03ED0B9
:10164000B4E03CD0670F781F891F9A1FA11D680F57
:10165000791F8A1F911DA11D6A0F711D811D911D8A
:10166000A11D20D009F468943F912AE0269F1124FF
:101670003019305D3193DEF6CF010895462F477063
:10168000405D4193B3E00FD0C9F7F6CF462F4F70BE
:10169000405D4A3318F0495D31FD4052419302D01C
:1016A000A9F7EACFB4E0A6959795879577956795C2
:1016B000BA95C9F700976105710508959B01AC01C2
:1016C0000A2E06945795479537952795BA95C9F7E9
:1016D000620F731F841F951FA01D08952F923F92C4
:1016E0004F925F926F927F928F929F92AF92BF9232
:1016F000CF92DF92EF92FF920F931F93CF93DF93DE
:10170000CDB7DEB7CA1BDB0B0FB6F894DEBF0FBE3A
:10171000CDBF09942A88398848885F846E847D8487
:101720008C849B84AA84B984C884DF80EE80FD8089
:101730000C811B81AA81B981CE0FD11D0FB6F894FF
:0E174000DEBF0FBECDBFED010895F894FFCFC0
:10174E000505456E7465722070617373776F7264F0
:10175E003A0020206C6F636B65642E0031003400FC
:10176E0037003200350038003000330036003900C3
:10177E00706173733A726967687400706173733A5B
:10178E0077726F6E6700666163653A2077726F6E6F
:10179E006720202020002020202020202020202014
:1017AE00202020202000666163653A200066696E65
:1017BE003A760066696E3A6900723A7600723A6954
:1017CE000070617373207570646174656400736575
:1017DE007474696E6773207570642E00756E6C6F0D
:1017EE00636B65642E0066696E6765722061646462
:1017FE006564007266696420616464656400666194
:10180E0063653A2077726F6E672020002531642061
:0C181E00202023617574683A25316400B5
:00000001FF
