:100000000C9434000C9446000C9446000C9446006A
:100010000C9446000C9446000C9446000C94460048
:100020000C9446000C9446000C9446000C94460038
:100030000C9446000C9446000C9446000C94460028
:100040000C9446000C9446000C9446000C94460018
:100050000C9446000C9446000C9446000C94460008
:100060000C9446000C94460011241FBECFEFD8E03C
:10007000DEBFCDBF21E0A0E0B1E001C01D92A13004
:10008000B207E1F70E9455000C947D000C9400002B
:10009000239AE0EBF0E08081836080838081806838
:1000A00080838AEF8093B30008950E944800389AB5
:1000B000219A8091B10081608093B100809100010C
:1000C0008115C9F0289A2FEF8FEF9DE121508040D4
:1000D0009040E1F700C0000010920001409A299A78
:1000E00023E82A95F1F700004098299883E08A9543
:0E00F000F1F70000E3CF4098F1CFF894FFCF76
:00000001FF
